:1000000055C000006EC000006CC000006AC0000057
:1000100068C0000066C0000064C0000062C000004C
:1000200060C000005EC000005CC000005AC000005C
:1000300058C0000056C0000054C0000052C000006C
:1000400050C000004EC000004CC000004AC000007C
:1000500048C0000062C0000044C0000042C0000070
:1000600040C000003EC000003CC000003AC000009C
:1000700038C0000036C0000034C0000032C00000AC
:1000800030C000002EC000002CC000002AC00000BC
:1000900028C0000026C0000024C0000022C00000CC
:1000A00020C000001EC000001CC0000011241FBEA4
:1000B000CFEFDAE0DEBFCDBF11E0A0E0B1E0E0E4D9
:1000C000F6E002C005900D92A430B107D9F711E017
:1000D000A4E0B1E001C01D92A830B107E1F7B2D0B1
:1000E000ADC252C03F9A559A209A089588B180585F
:1000F00088B908959BB180E289278BB9089584B5AA
:10010000826084BD85B5836085BD89EF87BDEEE6DD
:10011000F0E080818260808308951F920F920FB675
:100120000F9211242F938F939F9319990FC0809151
:100130000401909105018D3E2FEF92072CF001975D
:100140009093050180930401479A16C01A990EC036
:100150008091040190910501843191052CF4019660
:1001600090930501809304015D9806C010920501EB
:100170001092040147985D9A9F918F912F910F9053
:100180000FBE0F901F9018951F920F920FB60F92EF
:1001900011240F900FBE0F901F9018952198229850
:1001A0003E9A469A0895BC01882777FD8095982F3E
:1001B0000DD120E030E04FE753E494D120E030E06F
:1001C00048EC52E46DD0D4D0FFD0EFD1D1D07093B1
:1001D0008B0060938A000895BC01882777FD809585
:1001E000982FF4D020E030E04FE753E47BD120E0BB
:1001F00030E048EC52E454D0BBD0E6D0D6D1B8D0F1
:100200007093890060938800089580910601882387
:1002100011F0729A089572980895809107018823C9
:1002200011F05E9A08955E980895269A259AE0E85E
:10023000F0E08081816A8083E1E8F0E08081816084
:10024000808308951092D8004DDFA8DFEEDF57DFDE
:100250008091000190910101A6DF809102019091AF
:100260000301BADF87EA91E60197F1F700C00000C9
:1002700078948091000190910101209104013091C6
:100280000501821B930B8FDF209104013091050142
:100290008091020190910301820F931F9DDFE9CFAE
:1002A0000CD0E6C0DED040F0D5D030F021F45F3F76
:1002B00019F0C7C0511110C1CAC0EBD098F39923EF
:1002C000C9F35523B1F3951B550BBB27AA2762171A
:1002D0007307840738F09F5F5F4F220F331F441F5F
:1002E000AA1FA9F333D00E2E3AF0E0E830D0915097
:1002F0005040E695001CCAF729D0FE2F27D0660F84
:10030000771F881FBB1F261737074807AB07B0E8C2
:1003100009F0BB0B802DBF01FF2793585F4F2AF0D8
:100320009E3F510568F08DC0D7C05F3FECF3983E0B
:10033000DCF3869577956795B795F7959F5FC9F735
:10034000880F911D9695879597F90895E1E0660FBE
:10035000771F881FBB1F621773078407BA0720F037
:10036000621B730B840BBA0BEE1F88F7E0950895A0
:1003700098D088F09F5790F0B92F9927B751A0F0E7
:10038000D1F0660F771F881F991F1AF0BA95C9F729
:1003900012C0B13081F09FD0B1E008959CC0672FAA
:1003A000782F8827B85F39F0B93FCCF386957795D9
:1003B0006795B395D9F73EF49095809570956195C2
:1003C0007F4F8F4F9F4F0895E89409C097FB3EF4ED
:1003D00090958095709561957F4F8F4F9F4F992392
:1003E000A9F0F92F96E9BB279395F6958795779510
:1003F0006795B795F111F8CFFAF4BB0F11F460FFD0
:100400001BC06F5F7F4F8F4F9F4F16C0882311F027
:1004100096E911C0772321F09EE8872F762F05C03B
:10042000662371F096E8862F70E060E02AF09A95D6
:10043000660F771F881FDAF7880F9695879597F9CB
:10044000089597F99F6780E870E060E008959FEF56
:1004500080EC089500240A9416161706180609065B
:10046000089500240A94121613061406050608952A
:10047000092E0394000C11F4882352F0BB0F40F4B2
:10048000BF2B11F460FF04C06F5F7F4F8F4F9F4FF2
:10049000089557FD9058440F551F59F05F3F71F074
:1004A0004795880F97FB991F61F09F3F79F08795DB
:1004B0000895121613061406551FF2CF4695F1DF64
:1004C00008C0161617061806991FF1CF86957105F4
:1004D000610508940895E894BB2766277727CB0128
:1004E00097F908950BD0C4CFB5DF28F0BADF18F024
:1004F000952309F0A6CFABCF1124EECFCADFA0F32E
:10050000959FD1F3950F50E0551F629FF001729FA8
:10051000BB27F00DB11D639FAA27F00DB11DAA1FC7
:10052000649F6627B00DA11D661F829F2227B00D14
:10053000A11D621F739FB00DA11D621F839FA00D9F
:10054000611D221F749F3327A00D611D231F849FEF
:10055000600D211D822F762F6A2F11249F57504046
:100560008AF0E1F088234AF0EE0FFF1FBB1F661FE1
:10057000771F881F91505040A9F79E3F510570F09A
:1005800060CFAACF5F3FECF3983EDCF3869577957A
:100590006795B795F795E7959F5FC1F7FE2B880F95
:1005A000911D9695879597F908957BDFE0F09E372A
:1005B000D8F09639B8F49E3848F4672F782F8827FA
:1005C000985FF9CF86957795679593959539D0F390
:1005D000B62FB1706B0F711D811D20F48795779533
:1005E0006795939502C01CC077CF882371F4772359
:1005F00021F09850872B762F07C0662311F4992796
:100600000DC09051862B70E060E02AF09A95660F3D
:10061000771F881FDAF7880F9695879597F90895C1
:100620009F3F31F0915020F4879577956795B79566
:10063000880F911D9695879597F90895F894FFCFA7
:04064000140014008E
:00000001FF
